:100000000C9434000C9451000C9451000C94510049
:100010000C9451000C9451000C9451000C9451001C
:100020000C9451000C9451000C9451000C9451000C
:100030000C9451000C9451000C9451000C945100FC
:100040000C9451000C9451000C9451000C945100EC
:100050000C9451000C9451000C9451000C945100DC
:100060000C9451000C94510011241FBECFEFD8E026
:10007000DEBFCDBF11E0A0E0B1E0E2E8FDE002C0EC
:1000800005900D92A831B107D9F711E0A8E1B1E0D0
:1000900001C01D92AC32B107E1F70E9473010C94CC
:1000A000BF060C9400000F931F93CF93DF9380E063
:1000B00090E0A0E0B0E08093180190931901A09324
:1000C0001A01B0931B0186B1082F10E00170107067
:1000D000109321010093200126B130E0227030708E
:1000E00030931F0120931E0186B190E084709070C0
:1000F000909323018093220186B1482F50E04870ED
:10010000507050931D0140931C0186B1C82FD0E060
:10011000C071D070D0932501C0932401232B61F0CE
:1001200080E090E0A8ECB2E480931801909319016C
:10013000A0931A01B0931B01452BB1F060911801F7
:100140007091190180911A0190911B0120E030E01B
:1001500048EC52E40E943202609318017093190136
:1001600080931A0190931B01012BB1F0609118014B
:100170007091190180911A0190911B0120E030E0EB
:100180004AEF53E40E9433026093180170931901FF
:1001900080931A0190931B01CD2BB1F0609118014F
:1001A0007091190180911A0190911B0120E030E0BB
:1001B0004AEF53E40E9432026093180170931901D0
:1001C00080931A0190931B0120911801309119011D
:1001D00040911A0150911B01B901CA01DF91CF91E1
:1001E0001F910F9108958AB180668AB984E687BD10
:1001F00088BD83EF84BD83E085BD08958AB18861A1
:100200008AB984B1866084B908951816190654F421
:100210005B9A5C988F3F910519F014F08FEF90E096
:1002200080950BC0009731F15C9A5B982FEF81307D
:10023000920714F481E09FEF815087BD16161706D0
:100240005CF4299A2A986F3F710519F014F06FEF4A
:1002500070E0862F809515C06115710579F02A9A96
:1002600029988FEF6130780714F461E07FEF862FD3
:10027000815007C05C9A5B9A8FEFDFCF299A2A9A48
:100280008FEF88BD08951092C50087E68093C40063
:10029000E0ECF0E080818D7F8083E2ECF0E0808113
:1002A00086608083E1ECF0E080818861808308953E
:1002B000982F8091C00085FFFCCF9093C6000895D1
:1002C000982F8A3039F48091C00085FFFCCF8DE0F3
:1002D0008093C6008091C00085FFFCCF9093C6003C
:1002E00080E090E008952F923F924F925F926F923C
:1002F0007F928F929F92AF92BF92CF92DF92EF92B6
:10030000FF920F931F93DF93CF93CDB7DEB7609724
:100310000FB6F894DEBF0FBECDBF0E94430189E047
:1003200091E0909329018093280100D080E091E032
:10033000EDB7FEB7928381830E949D030F900F90CB
:100340000E94F3008AB188618AB984B1866084B959
:1003500087B1807E87B988B18F6188B986B1807E88
:1003600086B980E090E060E070E00E94050180E1E5
:1003700097E220E931E0F9013197F1F70197D9F7D8
:100380000F2EF0E06F2EF0E07F2EF0E08F2EF0E0E9
:100390009F2EF02D130124010E9453005B016C017C
:1003A000C201B101A60195010E9433021B012C017B
:1003B000C601B5012DEC3CEC4CE45DE30E94190351
:1003C0007B018C01C601B501A40193010E94320298
:1003D00020E030E040E050E00E9419039B01AC01B6
:1003E000C801B7010E9433027B018C01C201B10137
:1003F00020E030E040E050E00E9419039B01AC0196
:10040000C801B7010E9433020E9497027B018C0150
:10041000C601B5010E949702DC01CB01BE016F5FEE
:100420007F4F4AE050E00E947C0300D081E090E0E2
:100430008C0F9D1FEDB7FEB7928381830E949D03B1
:100440000F900F9083E091E00E94B20366E970E0A4
:100450006E197F09C7018A569F4F0E940501350119
:1004600046019ACF5058BB27AA270ED0A8C099D0D2
:1004700030F09ED020F031F49F3F11F41EF48EC076
:100480000EF4E095E7FB84C0E92FAAD080F3BA17F9
:10049000620773078407950718F071F49EF5C2C0D0
:1004A0000EF4E0950B2EBA2FA02D0B01B90190018F
:1004B0000C01CA01A0011124FF27591B99F0593FD3
:1004C00050F4503E68F11A16F040A22F232F342F1B
:1004D0004427585FF3CF469537952795A795F04069
:1004E0005395C9F77EF41F16BA0B620B730B840B7E
:1004F000BAF09150A1F0FF0FBB1F661F771F881F36
:10050000C2F70EC0BA0F621F731F841F48F487958D
:1005100077956795B795F7959E3F08F0B3CF93957C
:10052000880F08F09927EE0F97958795089504D0C6
:100530006894B11178C008955BD088F09F5790F00F
:10054000B92F9927B751A0F0D1F0660F771F881FF8
:10055000991F1AF0BA95C9F712C0B13081F062D074
:10056000B1E008955FC0672F782F8827B85F39F012
:10057000B93FCCF3869577956795B395D9F73EF457
:1005800090958095709561957F4F8F4F9F4F0895FF
:1005900097F99F6780E870E060E008959FEF80EC36
:1005A000089500240A9416161706180609060895D9
:1005B00000240A9412161306140605060895092E3F
:1005C0000394000C11F4882352F0BB0F40F4BF2BAE
:1005D00011F460FF04C06F5F7F4F8F4F9F4F0895EE
:1005E00057FD9058440F551F59F05F3F71F04795E4
:1005F000880F97FB991F61F09F3F79F087950895C9
:10060000121613061406551FF2CF4695F1DF08C0E7
:10061000161617061806991FF1CF86957105610504
:1006200008940895E894BB2766277727CB0197F9AC
:1006300008950BD0C4CFB5DF28F0BADF18F09523AA
:1006400009F0A6CFABCF1124EECFCADFA0F3959F60
:10065000D1F3950F50E0551F629FF001729FBB27A9
:10066000F00DB11D639FAA27F00DB11DAA1F649F55
:100670006627B00DA11D661F829F2227B00DA11D08
:10068000621F739FB00DA11D621F839FA00D611D8E
:10069000221F749F3327A00D611D231F849F600DAF
:1006A000211D822F762F6A2F11249F5750408AF0E8
:1006B000E1F088234AF0EE0FFF1FBB1F661F771F74
:1006C000881F91505040A9F79E3F510570F060CFB0
:1006D000AACF5F3FECF3983EDCF38695779567955C
:1006E000B795F795E7959F5FC1F7FE2B880F911D92
:1006F0009695879597F90895FB019F01E8944230FC
:10070000C4F04532B4F44A3029F497FB1EF49095B6
:1007100081959F4F642F77270E947406805D8A33EE
:100720000CF0895D8193CB010097A1F716F45DE28F
:1007300051931082C9010C94DA05A0E0B0E0E3EA1D
:10074000F3E00C949806FE013596619171918091C9
:10075000280190912901AF010E94E7032096E2E071
:100760000C94B4060F931F93CF93DF938C01E09109
:100770002801F0912901838181FF21C0C0E0D0E0F0
:100780000DC0E0912801F091290120853185BF013C
:10079000F9010995892B11F0CFEFDFEFF801819175
:1007A0008F01882371F7E0912801F09129012085BC
:1007B00031858AE0BF01F9010995892B11F0CFEF4E
:1007C000DFEFCE01DF91CF911F910F910895ABE044
:1007D000B0E0EDEEF3E00C9488063C012B015A01E9
:1007E000FC0117821682838181FD03C06FEF7FEFCA
:1007F000C6C19AE0892E1E010894211C311CF30108
:100800002381F20123FD859123FF81912F0188230C
:1008100009F4B2C1853239F423FD859123FF81911A
:100820002F01853229F490E0B3010E94EA05E7CF59
:10083000982FFF24EE249924FFE1FF15D0F09B327E
:1008400069F09C3228F4903259F0933291F40EC042
:100850009D3249F0903369F441E024C052E0F52A1A
:1008600084E0F82A28C098E0F92A25C0E0E1FE2AB1
:1008700022C0F7FC29C0892F80538A3070F4F6FE1D
:1008800005C0989C902C1124980E15C0E89CE02C73
:100890001124E80EF0E2FF2A0EC09E3229F4F6FC85
:1008A0006BC140E4F42A07C09C3619F450E8F52ADD
:1008B00002C0983649F4F20123FD959123FF9191EE
:1008C0002F01992309F0B8CF892F8554833018F070
:1008D0008052833038F444E050E0A40EB51E5FE34C
:1008E00059830FC0933631F0933779F0933509F07F
:1008F00056C020C0F5018081898342E050E0A40EFB
:10090000B51E610101E010E012C0F501C080D18088
:10091000F6FC03C06FEF7FEF02C0692D70E042E08C
:1009200050E0A40EB51EC6010E94CF058C015FE702
:10093000F52214C0F501C080D180F6FC03C06FEF32
:100940007FEF02C0692D70E042E050E0A40EB51EBA
:10095000C6010E94C4058C0150E8F52AF3FE07C0C9
:100960001AC080E290E0B3010E94EA05EA948E2D5D
:1009700090E008171907A8F30EC0F601F7FC85915F
:10098000F7FE81916F0190E0B3010E94EA05E1104A
:10099000EA94015010400115110579F7EAC0943628
:1009A00011F0993669F5F7FE08C0F5012081318113
:1009B0004281538184E090E00AC0F50180819181F9
:1009C0009C01442737FD4095542F82E090E0A80E0B
:1009D000B91E9FE6F92257FF09C050954095309502
:1009E00021953F4F4F4F5F4FE0E8FE2ACA01B90102
:1009F000A1012AE030E00E941606D82ED21840C08D
:100A0000953729F41F2D1F7E2AE030E01DC01F2DD1
:100A1000197F9F3661F0903720F4983509F0ACC00B
:100A20000FC0903739F0983709F0A6C004C028E00D
:100A300030E00AC0106114FD146020E130E004C011
:100A400014FD166020E132E017FF08C0F501608157
:100A500071818281938144E050E008C0F50180817A
:100A60009181BC0180E090E042E050E0A40EB51E10
:100A7000A1010E941606D82ED2188FE7F82EF12277
:100A8000F6FE0BC05EEFF522D91438F4F4FE07C071
:100A9000F2FC05C08FEEF82202C01D2D01C0192DF9
:100AA000F4FE0DC0FE01ED0DF11D8081803319F4BF
:100AB00099EEF92208C01F5FF2FE05C003C08F2D1A
:100AC000867809F01F5F0F2DF3FC14C0F0FE0FC0F5
:100AD0001E1510F09D2C0BC09D2C9E0C911A1E2DE6
:100AE00006C080E290E0B3010E94EA051F5F1E1578
:100AF000C0F304C01E1510F4E11A01C0EE2404FF77
:100B00000FC080E390E0B3010E94EA0502FF1DC020
:100B100001FD03C088E790E00EC088E590E00BC0BF
:100B2000802F867891F001FF02C08BE201C080E245
:100B3000F7FC8DE290E0B3010E94EA0506C080E375
:100B400090E0B3010E94EA059A94D914C0F3DA94B4
:100B5000F101ED0DF11D808190E0B3010E94EA05E5
:100B6000DD20A9F706C080E290E0B3010E94EA050B
:100B7000EA94EE20C1F743CEF30166817781CB0181
:100B80002B96E2E10C94A406FC01059061507040A4
:100B90000110D8F7809590958E0F9F1F0895FC0146
:100BA0006150704001900110D8F7809590958E0F9C
:100BB0009F1F0895DC01FC01672F71917723E1F7F6
:100BC000329704C07C916D9370836291AE17BF071A
:100BD000C8F308950F931F93CF93DF938C01EB011C
:100BE0008B8181FF1BC082FF0DC02E813F818C81D4
:100BF0009D812817390764F4E881F9810193F9830D
:100C0000E88306C0E885F985802F0995892B31F4A2
:100C10008E819F8101969F838E8302C00FEF1FEF0D
:100C2000C801DF91CF911F910F910895FA01AA2772
:100C3000283051F1203181F1E8946F936E7F6E5F1F
:100C40007F4F8F4F9F4FAF4FB1E03ED0B4E03CD0CD
:100C5000670F781F891F9A1FA11D680F791F8A1FB0
:100C6000911DA11D6A0F711D811D911DA11D20D017
:100C700009F468943F912AE0269F11243019305DD1
:100C80003193DEF6CF010895462F4770405D4193C2
:100C9000B3E00FD0C9F7F6CF462F4F70405D4A330F
:100CA00018F0495D31FD4052419302D0A9F7EACFD7
:100CB000B4E0A6959795879577956795BA95C9F706
:100CC00000976105710508959B01AC010A2E0694F9
:100CD0005795479537952795BA95C9F7620F731FB2
:100CE000841F951FA01D0895AA1BBB1B51E107C0BF
:100CF000AA1FBB1FA617B70710F0A61BB70B881FAC
:100D0000991F5A95A9F780959095BC01CD0108953A
:100D10002F923F924F925F926F927F928F929F920B
:100D2000AF92BF92CF92DF92EF92FF920F931F93F9
:100D3000CF93DF93CDB7DEB7CA1BDB0B0FB6F894AA
:100D4000DEBF0FBECDBF09942A88398848885F84EA
:100D50006E847D848C849B84AA84B984C884DF805B
:100D6000EE80FD800C811B81AA81B981CE0FD11D3F
:100D70000FB6F894DEBF0FBECDBFED010895F89415
:020D8000FFCFA3
:100D82000A20002020202020000000000200000095
:080D92000060010000000000F8
:00000001FF
