:100000000C9434000C9451000C9451000C94510049
:100010000C9451000C9451000C9451000C9451001C
:100020000C9451000C9451000C9451000C9451000C
:100030000C9451000C9451000C9451000C945100FC
:100040000C9451000C9451000C9451000C945100EC
:100050000C9451000C9451000C9451000C945100DC
:100060000C9451000C94510011241FBECFEFD8E026
:10007000DEBFCDBF11E0A0E0B1E0E8EDF7E002C0E7
:1000800005900D92AC31B107D9F711E0ACE1B1E0C8
:1000900001C01D92A232B107E1F70E9483000C94C7
:1000A000EA030C9400001092C50087E68093C40018
:1000B000E0ECF0E080818D7F8083E2ECF0E08081F5
:1000C00086608083E1ECF0E0808188618083089520
:1000D000982F8091C00085FFFCCF9093C6000895B3
:1000E000982F8A3039F48091C00085FFFCCF8DE0D5
:1000F0008093C6008091C00085FFFCCF9093C6001E
:1001000080E090E00895AF92BF92CF92DF92EF929D
:10011000FF920F931F93DF93CF93CDB7DEB7609716
:100120000FB6F894DEBF0FBECDBF0E9453008DE026
:1001300091E090931F0180931E0100D080E091E038
:10014000EDB7FEB7928381830E94F60000E010E0D5
:100150000F900F907E010894E11CF11C93E0A92EF2
:1001600091E0B92E80E4C82E8FE1D82EC801B701E6
:100170004AE050E00E94D5008AE090E00E940B0126
:1001800000D0EDB7FEB7B282A1820E94F600EDB7B3
:10019000FEB7F282E1820E94F6000F5F1F4FC60198
:1001A0000197F1F70F900F90E1CFFB019F01E894C9
:1001B0004230C4F04532B4F44A3029F497FB1EF4BF
:1001C000909581959F4F642F77270E949F03805DB4
:1001D0008A330CF0895D8193CB010097A1F716F467
:1001E0005DE251931082C9010C940503A0E0B0E0D8
:1001F000ECEFF0E00C94C303FE0135966191719130
:1002000080911E0190911F01AF010E941201209662
:10021000E2E00C94DF0360911E0170911F010E94C7
:1002200015030895ABE0B0E0E8E1F1E00C94B3030E
:100230003C012B015A01FC0117821682838181FD4A
:1002400003C06FEF7FEFC6C19AE0892E1E010894AC
:10025000211C311CF3012381F20123FD859123FF31
:1002600081912F01882309F4B2C1853239F423FD2D
:10027000859123FF81912F01853229F490E0B3010C
:100280000E941503E7CF982FFF24EE249924FFE165
:10029000FF15D0F09B3269F09C3228F4903259F06F
:1002A000933291F40EC09D3249F0903369F441E0ED
:1002B00024C052E0F52A84E0F82A28C098E0F92A00
:1002C00025C0E0E1FE2A22C0F7FC29C0892F805317
:1002D0008A3070F4F6FE05C0989C902C1124980E7C
:1002E00015C0E89CE02C1124E80EF0E2FF2A0EC0B5
:1002F0009E3229F4F6FC6BC140E4F42A07C09C3618
:1003000019F450E8F52A02C0983649F4F20123FDA9
:10031000959123FF91912F01992309F0B8CF892F4F
:100320008554833018F08052833038F444E050E034
:10033000A40EB51E5FE359830FC0933631F0933797
:1003400079F0933509F056C020C0F501808189838A
:1003500042E050E0A40EB51E610101E010E012C0C1
:10036000F501C080D180F6FC03C06FEF7FEF02C0C3
:10037000692D70E042E050E0A40EB51EC6010E9457
:10038000FA028C015FE7F52214C0F501C080D1802C
:10039000F6FC03C06FEF7FEF02C0692D70E042E012
:1003A00050E0A40EB51EC6010E94EF028C0150E879
:1003B000F52AF3FE07C01AC080E290E0B3010E9464
:1003C0001503EA948E2D90E008171907A8F30EC0C4
:1003D000F601F7FC8591F7FE81916F0190E0B30182
:1003E0000E941503E110EA94015010400115110517
:1003F00079F7EAC0943611F0993669F5F7FE08C02E
:10040000F501208131814281538184E090E00AC06E
:10041000F501808191819C01442737FD4095542F3F
:1004200082E090E0A80EB91E9FE6F92257FF09C0AE
:1004300050954095309521953F4F4F4F5F4FE0E8E5
:10044000FE2ACA01B901A1012AE030E00E9441035D
:10045000D82ED21840C0953729F41F2D1F7E2AE0D0
:1004600030E01DC01F2D197F9F3661F0903720F4BA
:10047000983509F0ACC00FC0903739F0983709F0C3
:10048000A6C004C028E030E00AC0106114FD14606A
:1004900020E130E004C014FD166020E132E017FFD7
:1004A00008C0F501608171818281938144E050E050
:1004B00008C0F50180819181BC0180E090E042E0BC
:1004C00050E0A40EB51EA1010E944103D82ED218FF
:1004D0008FE7F82EF122F6FE0BC05EEFF522D9145D
:1004E00038F4F4FE07C0F2FC05C08FEEF82202C01B
:1004F0001D2D01C0192DF4FE0DC0FE01ED0DF11DE5
:100500008081803319F499EEF92208C01F5FF2FE52
:1005100005C003C08F2D867809F01F5F0F2DF3FCF7
:1005200014C0F0FE0FC01E1510F09D2C0BC09D2CAA
:100530009E0C911A1E2D06C080E290E0B3010E942D
:1005400015031F5F1E15C0F304C01E1510F4E11A39
:1005500001C0EE2404FF0FC080E390E0B3010E94CD
:10056000150302FF1DC001FD03C088E790E00EC027
:1005700088E590E00BC0802F867891F001FF02C0E3
:100580008BE201C080E2F7FC8DE290E0B3010E94B3
:10059000150306C080E390E0B3010E9415039A940E
:1005A000D914C0F3DA94F101ED0DF11D808190E0D2
:1005B000B3010E941503DD20A9F706C080E290E098
:1005C000B3010E941503EA94EE20C1F743CEF30174
:1005D00066817781CB012B96E2E10C94CF03FC017D
:1005E0000590615070400110D8F7809590958E0F5E
:1005F0009F1F0895FC016150704001900110D8F7D1
:10060000809590958E0F9F1F0895DC01FC01672F48
:1006100071917723E1F7329704C07C916D937083D9
:100620006291AE17BF07C8F308950F931F93CF933E
:10063000DF938C01EB018B8181FF1BC082FF0DC01A
:100640002E813F818C819D812817390764F4E881D0
:10065000F9810193F983E88306C0E885F985802F45
:100660000995892B31F48E819F8101969F838E831A
:1006700002C00FEF1FEFC801DF91CF911F910F91C3
:100680000895FA01AA27283051F1203181F1E89428
:100690006F936E7F6E5F7F4F8F4F9F4FAF4FB1E075
:1006A0003ED0B4E03CD0670F781F891F9A1FA11D70
:1006B000680F791F8A1F911DA11D6A0F711D811D71
:1006C000911DA11D20D009F468943F912AE0269F36
:1006D00011243019305D3193DEF6CF010895462F95
:1006E0004770405D4193B3E00FD0C9F7F6CF462F76
:1006F0004F70405D4A3318F0495D31FD40524193DF
:1007000002D0A9F7EACFB4E0A6959795879577959B
:100710006795BA95C9F700976105710508959B0122
:10072000AC010A2E06945795479537952795BA95AB
:10073000C9F7620F731F841F951FA01D0895AA1B80
:10074000BB1B51E107C0AA1FBB1FA617B70710F0BC
:10075000A61BB70B881F991F5A95A9F780959095EE
:10076000BC01CD0108952F923F924F925F926F92FC
:100770007F928F929F92AF92BF92CF92DF92EF9231
:10078000FF920F931F93CF93DF93CDB7DEB7CA1BB2
:10079000DB0B0FB6F894DEBF0FBECDBF09942A88DD
:1007A000398848885F846E847D848C849B84AA8485
:1007B000B984C884DF80EE80FD800C811B81AA8112
:1007C000B981CE0FD11D0FB6F894DEBF0FBECDBFDD
:0807D000ED010895F894FFCF3C
:1007D8000A20004E756D626572203A200000000004
:0C07E80002000000007000000000000093
:00000001FF
